:100000000C942E010C94DD080C94B2080C94870813
:100010000C945C080C9431080C9406080C94DB07D3
:100020000C94B0070C944D010C9408090C944D01EC
:100030000C944D010C944D010C944D010C944D0108
:100040000C9466070C944D010C944D010C944D01D9
:100050000C944D010C944D010C944D010C944D01E8
:100060000C944D010C944D010C944D010C944D01D8
:100070000C944D010C944D010C944D010C944D01C8
:100080000C944D010C944D010C944D015003000053
:10009000000000130D0000000000000101C08000FE
:1000A000000000000000000000060000000000004A
:1000B0000000000000000000000000000000000040
:1000C0000000000000003F000000000000000000F1
:1000D0000000000000000000000000000000000020
:1000E0000000000000000000000000000000000010
:1000F00000000000000000000000000002001400EA
:10010000030014000400140005001400060014008D
:100110000700140008001400090014000A0014006D
:100120000B0014000C0014000D0008000E00080065
:100130000F0008001000080011000800120008005D
:100140001300080014000800150008000100140046
:10015000010014000100140001001400010014004B
:1001600000801F0000811F00FF000000FF00000052
:10017000FF000000FF000000FF000000FF00000083
:10018000FF000000FF000000FF000000FF00000073
:10019000FF000000FF000000FF00000000003A0028
:1001A00037003400310022006100640000003B0091
:1001B00038003500320023006200650005050505A2
:1001C00005050505020202020202020207070404F5
:1001D00004040404040407070303030303030303E1
:1001E00007010101010101010106060606060606D6
:1001F000060102040810204080010204081020407B
:10020000800810010204081020408001020102044D
:1002100008102040800480402010080402010102E0
:100220000408102040800000000A0B0C00000000B1
:1002300000000104050600000000000000000000AE
:1002400000000000000000000000000000000000AE
:1002500000000000000000000000000011241FBE8C
:10026000CFEFD0E1DEBFCDBF11E0A0E0B1E0ECEB1D
:10027000F4E100E00BBF02C007900D92AC37B1076C
:10028000D9F721E0ACE7B1E001C01D92AA3BB2076B
:10029000E1F70E9455090C945C0A0C940000E82FC9
:1002A000F0E0E056FE4F8085861739F06087618B5D
:1002B0008091A20183608093A2010895262F30E0EF
:1002C0009091A6019078691729F09091A2019C6005
:1002D0009093A2013695322F222737952795822BAE
:1002E0008093A6018093A7010895089580E090E08F
:1002F000892B29F080919F0183FD0C9400000895C3
:10030000009731F16091A3017091A40186179707BE
:1003100009F06DC041504A30D8F4E42FF0E0ED56BA
:10032000FE4F0C94530A9D01A901B401C401CB01F5
:10033000D201D901E001E701EF018091A80128175E
:1003400039F02093A8018091A20181608093A201DD
:1003500008959091A90180EF820F292B28239217ED
:10036000B9F32093A901EFCF3091A90140E1249F77
:10037000C0011124832B2295207F215F822338170F
:1003800039F38093A901DFCF8091AA01281701F3E7
:100390002093AA01D8CF8091AB012817C9F22093EE
:1003A000AB01D1CF8091AC01281791F22093AC0121
:1003B000CACF8091AD01281759F22093AD01C3CF68
:1003C0008091AE01281721F22093AE01BCCF80911D
:1003D000AF01281709F4BCCF2093AF01B4CF8091AF
:1003E000B001281709F4B4CF2093B001ACCF3091FD
:1003F000A5013F773817190609F0AACF4230A1F0BE
:1004000018F4413031F008954330D1F0443049F1CF
:1004100008958091B101281709F49ACF2093B10172
:100420008091A201826092CF9091B20180EF820F01
:10043000292B2823921709F48BCF2093B201F0CFF8
:100440003091B20140E1249FC0011124832B2295F9
:10045000207F215F8223381709F47ACF8093B2017D
:10046000DFCF8091B301281709F472CF2093B30135
:10047000D7CF0F93009721F16091A3017091A40150
:100480008617970729F5822F90E03091A6013078E2
:10049000231729F02091A20124602093A2010D319D
:1004A00089F00F3779F00F3081F49C013695322FA7
:1004B0002227379527958091A601822B8093A6014C
:1004C0000F9108954093A601F0CF1092A601EDCFB1
:1004D0003091A5013F773817190691F7822F90E0E8
:1004E0003091A7013078231729F02091A2012860CC
:1004F0002093A2019695982F882797958795482B4A
:100500004093A701DDCF81508B3108F06CC0E82FFC
:10051000F0E0E357FD4F0C94530AA802AA02AC0284
:10052000AE02B002B202B402B602B802BE02C0020B
:10053000C202C802CC02D002D202D602DA02DC0227
:10054000DE02E002E402E802EA02EC02EE02F2025B
:10055000C4980895C3980895C2980895C0980895BE
:100560001F980895979808959698089595980895D6
:10057000809165008F7E809365000895C6980895E8
:10058000C7980895809162008B7F809362000895E0
:10059000809162008D7FF9CF809162008E7FF5CFD0
:1005A000DE980895809165008D7FE5CF809165008C
:1005B0008E7FE1CFA9980895AA980895AB980895E1
:1005C000809162008F7DE1CF809162008F7BDDCFD3
:1005D000DF980895AF980895AE98089580916200CD
:1005E0008F7ED3CFAD9808951F93CF93DF93EC0107
:1005F0008A819B8110E0892BE9F48D819E8110E036
:10060000892B69F588818E7F8883DF91CF911F9137
:100610000895812F90E0880F991FEA81FB81E80FF0
:10062000F91F0190F081E02D80818F7780830E94F7
:1006300083021F5F8981181760F3DFCF812F90E05D
:10064000880F991FED81FE81E80FF91F0190F0815D
:10065000E02D80818F7780830E9483021F5F8C81D1
:10066000181760F3CFCFFC0190819570953019F485
:10067000CF010C94F4020895FC01208120FF03C0F7
:1006800022FF0C94F402089581508B3108F06CC065
:10069000E82FF0E0E25BFC4F0C94530A69036B0314
:1006A0006D036F03710373037503770379037F038E
:1006B0008103830389038D039103930397039B03B2
:1006C0009D039F03A103A503A903AB03AD03AF03E0
:1006D000B303C49A0895C39A0895C29A0895C09A1C
:1006E00008951F9A0895979A0895969A0895959A4D
:1006F0000895809165008061809365000895C69A91
:100700000895C79A08958091620084608093620082
:100710000895809162008260F9CF809162008160CB
:10072000F5CFDE9A0895809165008260E5CF8091D3
:1007300065008160E1CFA99A0895AA9A0895AB9ABD
:100740000895809162008062E1CF809162008064B0
:10075000DDCFDF9A0895AF9A0895AE9A08958091FB
:1007600062008061D3CFAD9A08959091A201882351
:1007700061F090619093A20181E00E944403809116
:100780008A00887F80938A0008959F7E9093A201BB
:1007900081E00E948302109288001092890080916B
:1007A0008A008460EFCFCF93C82F809188018C1787
:1007B00019F08C2F0E94B503C0938801CC23F9F067
:1007C0002FB7F8948091820190918301A0918401C8
:1007D000B09185012FBF482F392F2A2F8B2F40939F
:1007E000890130938A0120938B0180938C01809141
:1007F00088018C1749F08C2FCF910C94B50340E001
:1008000030E020E080E0EBCFCF9108950F931F936D
:10081000CF938C01C0E0F8018181C81720F0CF91FF
:100820001F910F9108958C2F90E0880F991FD80188
:100830001296ED91FC91E80FF91F0190F081E02DE7
:100840008081982F906890838F770E944403CF5FB8
:10085000E2CF1F93CF93DF93EC01288120FD15C0D9
:1008600022FF13C0322F3160388321FF09C02A8153
:100870003B81232B51F0DF91CF911F910C94060403
:100880002D813E8110E0232BB9F4DF91CF911F9190
:100890000895812F90E0880F991FED81FE81E80F68
:1008A000F91F0190F081E02D8081982F906890834E
:1008B0008F770E9444031F5F8C81181750F3E5CF98
:1008C000CF93DF93EC018881982F9270691789F09C
:1008D000662369F082608883888180FF0AC0CE0128
:1008E0000E943303CE01DF91CF910C9429048D7FB8
:1008F000F2CFDF91CF9108951F93CF93DF93EC0157
:100900002881322F357099F4322F3160388321FFDE
:1009100009C02A813B81232B51F0DF91CF911F9198
:100920000C9406042D813E8110E0232BB9F4DF9155
:10093000CF911F910895812F90E0880F991FED812D
:10094000FE81E80FF91F0190F081E02D8081982F42
:10095000906890838F770E9444031F5F8C811817E3
:1009600050F3E5CFCF93DF93EC018881982F9270FD
:10097000691789F0662369F082608883888180FF27
:100980000AC0CE010E943C03CE01DF91CF910C94AE
:100990007C048D7FF2CFDF91CF910895A89A8FE7E5
:1009A0009EE30197F1F700C00000A89808950C9409
:1009B000CE040E94D303E6E8F1E081E0878310864D
:1009C000EFE8F1E088E0DF011D928A95E9F70895EC
:1009D0001F93CF93DF93EC018091A20184FF0BC0A2
:1009E0008FE090E00E943A0A182F80E190E00E9488
:1009F0003A0A181306C0CE01DF91CF911F910C94D3
:100A00003A0AFFCF0C94E804CF93DF9320919C0126
:100A100030919D012F3F320721F0C901DF91CF9125
:100A2000089580919F0187FF2BC086FF0FC089E04A
:100A300090E00E940205C82F81E090E00E9402052C
:100A40009C2F90939D0180939C0115C089E090E0BC
:100A50000E940205C82F81E090E00E94020590E408
:100A6000C99F90011124207C31708F73282B309303
:100A70009D0120939C0180919C0190919D01CECF7E
:100A800085FF0CC081E190E00E940205C82F82E141
:100A900090E00E940205C05CDD0BD2CF81E090E0C7
:100AA0000E94020590E0CDCFCF93DF93D0E0C0E06D
:100AB000FE01E457FF4F6491CE010E94420A219645
:100AC000C03181E0D807A1F761E081E893E00E949E
:100AD000420AC0E0CF5F8C2F0E944403CB31D1F794
:100AE000DF91CF9108950C9454051F93CF93DF931A
:100AF000EC01162F089779F4662319F10E9454052A
:100B000080E090E0892BB9F0612FCE01DF91CF9189
:100B10001F910C94000080E090E0892BA9F781E000
:100B2000C11590E1D90708F080E0111105C0DF91EF
:100B3000CF911F91089581E027972297C0F780E019
:100B4000F6CF80E090E0892BF9F681E0F0CF0F93AB
:100B50001F93CF93DF93EC01162F8091A20184FFA6
:100B600025C0CF30D10561F48FE090E00E94420AA9
:100B70008FE090E0DF91CF911F910F910C943A0A92
:100B80008FE090E00E943A0A082F80E190E00E94F6
:100B90003A0A08130AC0C730D10531F0C830D10570
:100BA00029F4183049F0FFCFFFCFFFCF612FCE01DE
:100BB0000E94420ACE01DECF0E94540588E0DF91F8
:100BC000CF911F910F9108958331910588F4813160
:100BD000910530F48130910519F08930910531F497
:100BE0002FEF3FEF30939D0120939C010C94A705BC
:100BF0008D319105D9F7677F60939F012091860120
:100C00002F73362F307C232B20938601E9CFBF92A0
:100C1000CF92DF92EF92FF920F931F93CF93DF93C8
:100C20008B01B42E690182FF23C083FF17C061E0EE
:100C3000C8010E9475058823D9F16B2DC8010E9457
:100C4000E4058B1135C0F601DF91CF911F910F9113
:100C5000FF90EF90DF90CF90BF90099460E0C801C3
:100C60000E947505882321F1C8010E940205E9CF81
:100C7000842F8770C1E0D0E07E0101C0EE0C8A9520
:100C8000EAF7D42FD870CB010E940205C82FB4FE1A
:100C90001CC061E0C8010E947505882349F0DD236E
:100CA00089F0CE296C2FC8010E94E4058C1759F2F7
:100CB000DF91CF911F910F91FF90EF90DF90CF9038
:100CC000BF900895E094CE21EDCF60E0C8010E946E
:100CD0007505882369F3CE21DD2319F0C111B3CF47
:100CE000E7CFCC2309F4AFCFE3CFAF92BF92DF922F
:100CF000EF92FF920F931F93CF93DF937C01162FF8
:100D0000C42FD22ED42FD07E8091860187FF2CC095
:100D1000D03EC1F5A0908701AA20A1F1B12CC50158
:100D20000E940205D82FC50101960E940205982F46
:100D30008D2FE816F90631F56C2F70E0762F6627B7
:100D4000662773706D296F5F7F4F26E731E0402F74
:100D50008C2FDF91CF911F910F91FF90EF90DF903B
:100D6000BF90AF900C94070680FD33C0D03609F4D5
:100D700064C090F4D03209F449C0D03409F45DC0A5
:100D8000DD2381F1DF91CF911F910F91FF90EF90C3
:100D9000DF90BF90AF900895D03A09F484C090F4EA
:100DA0002C2F2F7141E0D03869F7612FC701DF91F7
:100DB000CF911F910F91FF90EF90DF90BF90AF9078
:100DC0000C948001D03C09F475C0D03E09F4B4CF36
:100DD000D9CF0E9404058E159F0541F2E114F1045C
:100DE00029F2D0CF8C2F8E7069F680E090E0892BAD
:100DF00049F28C2F8170DF91CF911F910F91FF905D
:100E0000EF90DF90BF90AF900C940000CF71CF3186
:100E100009F0B8CF4D2D4F7761F0413061F02D2DA5
:100E2000221F2227221F0DE1612FC7010E943902D4
:100E3000A9CF41E0F4CF40E0F2CF2C2F30E08C2F4F
:100E40008F71813029F030F0803121F0813109F546
:100E500040E001C041E095E0359527959A95E1F78E
:100E600021700DE1612FC7010E94390280E090E0FE
:100E7000892B09F487CF4C2F612FC701DF91CF91C8
:100E80001F910F91FF90EF90DF90BF90AF900C9467
:100E90000000C901880F991F8E71C4FB442740F9D7
:100EA000482B4250D8CF2C2F2F7043E0C4FF7DCF6A
:100EB00042E07BCFCF71CE3131F0CF3109F062CF3C
:100EC0002D2D45E072CF2D2D44E06FCF1F920F9254
:100ED0000FB60F9211242F933F938F939F93AF934D
:100EE000BF938091820190918301A0918401B09180
:100EF00085013091810123E0230F2D3768F126E829
:100F0000230F0296A11DB11D2093810180938201C0
:100F100090938301A0938401B093850180917D011A
:100F200090917E01A0917F01B09180010196A11D59
:100F3000B11D80937D0190937E01A0937F01B093BA
:100F40008001BF91AF919F918F913F912F910F9011
:100F50000FBE0F901F9018950196A11DB11DD4CF03
:100F60001F920F920FB60F9211240BB60F922F9370
:100F70003F934F935F936F937F938F939F93AF9321
:100F8000BF93EF93FF93E0914401F09145010995E0
:100F9000FF91EF91BF91AF919F918F917F916F9151
:100FA0005F914F913F912F910F900BBE0F900FBE0D
:100FB0000F901F9018951F920F920FB60F92112449
:100FC0000BB60F922F933F934F935F936F937F9343
:100FD0008F939F93AF93BF93EF93FF93E091420161
:100FE000F09143010995FF91EF91BF91AF919F91CE
:100FF0008F917F916F915F914F913F912F910F90C2
:101000000BBE0F900FBE0F901F9018951F920F925E
:101010000FB60F9211240BB60F922F933F934F935D
:101020005F936F937F938F939F93AF93BF93EF9350
:10103000FF93E0914001F09141010995FF91EF91FB
:10104000BF91AF919F918F917F916F915F914F91E0
:101050003F912F910F900BBE0F900FBE0F901F90DE
:1010600018951F920F920FB60F9211240BB60F9284
:101070002F933F934F935F936F937F938F939F93A0
:10108000AF93BF93EF93FF93E0913E01F0913F0147
:101090000995FF91EF91BF91AF919F918F917F91B2
:1010A0006F915F914F913F912F910F900BBE0F90D9
:1010B0000FBE0F901F9018951F920F920FB60F92B0
:1010C00011240BB60F922F933F934F935F936F931F
:1010D0007F938F939F93AF93BF93EF93FF93E09191
:1010E0003C01F0913D010995FF91EF91BF91AF91C6
:1010F0009F918F917F916F915F914F913F912F9130
:101100000F900BBE0F900FBE0F901F9018951F925F
:101110000F920FB60F9211240BB60F922F933F939D
:101120004F935F936F937F938F939F93AF93BF93EF
:10113000EF93FF93E0913A01F0913B010995FF9104
:10114000EF91BF91AF919F918F917F916F915F913F
:101150004F913F912F910F900BBE0F900FBE0F90AC
:101160001F9018951F920F920FB60F9211240BB675
:101170000F922F933F934F935F936F937F938F9330
:101180009F93AF93BF93EF93FF93E0913801F0915A
:1011900039010995FF91EF91BF91AF919F918F9187
:1011A0007F916F915F914F913F912F910F900BBE67
:1011B0000F900FBE0F901F9018951F920F920FB6B1
:1011C0000F9211240BB60F922F933F934F935F937F
:1011D0006F937F938F939F93AF93BF93EF93FF93FF
:1011E000E0913601F09137010995FF91EF91BF91A0
:1011F000AF919F918F917F916F915F914F913F91AF
:101200002F910F900BBE0F900FBE0F901F9018954F
:101210001F920F920FB60F9211240BB60F922F93BD
:101220003F934F935F936F937F938F939F93AF936E
:10123000BF93CF93DF93EF93FF937894C6E4D1E00D
:10124000E991F991808187FF08C08F7720917C0117
:101250009181921720F10E94440381E0CC37D80796
:1012600079F786E984BD80917C018F5F8032D1F06F
:1012700080937C01FF91EF91DF91CF91BF91AF916E
:101280009F918F917F916F915F914F913F912F919E
:101290000F900BBE0F900FBE0F901F9018950E94DD
:1012A0008302DBCF10927C01E5CF789483B78C6406
:1012B00083BF87B7816087BF82E08EBD8EB58160B6
:1012C0008EBD8FB581608FBD85B5846085BD85B5C8
:1012D000806485BD80918A00836080938A008091BC
:1012E0008B00816080938B0087E886B91AB80FB6AF
:1012F000F894A89581B5886181BD11BC0FBE1ABA5A
:1013000017BA14BA11BA12B81092610010926400A0
:1013100042EF51E0FA0164918DEB91E0FC012491E0
:10132000222399F030E0220F331FF901E456FE4FDB
:10133000A591B491F901E455FE4F259134912FB751
:10134000F8943C91632B6C932FBFE7E2F2E0249179
:10135000FA014491FC018491882341F12223C1F0D8
:1013600021502C30A8F4E22FF0E0E754F64F0C9413
:10137000530A360A360AC809C5091E0A210A240A70
:10138000C809C809280A2E0A320A9FB59F779FBD4F
:10139000E82FF0E0EE0FFF1FE455FE4FA591B4914A
:1013A0008FB7F8949C91492B4C938FBFA09ABC9A0D
:1013B000BB9ABA9AB89A179A8F9A8E9A8D9A8091F8
:1013C0006400806180936400BE9ABF9A809161003E
:1013D00084608093610080916100826080936100ED
:1013E00080916100816080936100D69A8091640051
:1013F00082608093640080916400816080936400C7
:10140000A19AA29AA39A8091610080628093610060
:1014100080916100806480936100D79AA79AA69A10
:1014200080916100806180936100A59AC0E0CF5FE8
:101430008C2F0E944403CB31D1F7FFCF9FB59F7D06
:10144000A6CF9FB5977FA3CF95B59F7D95BDA0CF24
:1014500090918B009F7790938B009ACF90918B0007
:101460009F7DF9CF90918B00977FF5CF93B79F7DAC
:1014700093BF8ECFE199FECF9FBB8EBBE09A992799
:101480008DB30895262FE199FECF9FBB8EBBE09AC6
:1014900001970DB2021631F02DBB0FB6F894E29A07
:1014A000E19A0FBE0895EE0FFF1F0024001C0BBE33
:0C14B0000790F691E02D0994F894FFCF0E
:1014BC001BFF1AFF19FF18FF17FF16FF15FF14FF6C
:1014CC0013FF12FF11FF10FF0FFF0EFF0DFF0CFF9C
:1014DC000BFF0AFF09FF08FF07FF06FF05FF04FFCC
:1014EC0003FF02FF01FF7501000000000000000077
:1014FC000000000000003401320130012E012C01EB
:10150C002A01280126012401220120011E011C01AF
:10151C001A01180116011401120110010E010C011F
:0C152C000A01080106010401020100018F
:00000001FF
