:100000000C945E010C94060F0C94DB0E0C94B00E55
:100010000C94850E0C945A0E0C942F0E0C94040E16
:100020000C94D90D0C947D010C94310F0C947D012E
:100030000C947D010C947D010C947D010C947D0148
:100040000C948F0D0C947D010C947D010C947D011A
:100050000C947D010C947D010C947D010C947D0128
:100060000C947D010C947D010C947D010C947D0118
:100070000C947D010C947D010C947D010C947D0108
:100080000C947D010C947D010C947D0150030000C3
:10009000000000130D0000000000000101C08000FE
:1000A000000000000000000000060000000000004A
:1000B0000000000000000000000000000000000040
:1000C0000000000000003F000000000000000000F1
:1000D0000000000000000000000000000000000020
:1000E0000000000000000000000000000000000010
:1000F00000000000000000000000000002001400EA
:10010000030014000400140005001400060014008D
:100110000700140008001400090014000A0014006D
:100120000B0014000C0014000D0008000E00080065
:100130000F0008001000080011000800120008005D
:100140001300080014000800150008000100140046
:10015000010014000100140001001400010014004B
:1001600000801F0000811F00FF000000FF00000052
:10017000FF000000FF000000FF000000FF00000083
:10018000FF000000FF000000FF000000FF00000073
:10019000FF000000FF000000FF0000000000000A58
:1001A0000B0C000000000000010405060000000028
:1001B000000000000000000000000000000000003F
:1001C000000000000000000000000000000000002F
:1001D000007000740078007C008000840088008C2F
:1001E000009000940098009C00A000A400A800AC1F
:1001F00000B000B400B800BC00C000C400C800CC0F
:1002000000D000D400D800DC00E000E400E800ECFE
:1002100000F000F400F800FC000001040108010CEB
:100220000100003B00380035003200230062006509
:100230000000003A00370034003100220061006401
:100240000001020408102040800102040810204030
:1002500080081001020408102040800102010204FD
:100260000810204080048040201008040201010290
:1002700004081020408000003900360033003000B0
:10028000210020006300050505050505050502029E
:100290000202020202020707040404040404040424
:1002A000070703030303030303030701010101011C
:1002B00001010106060606060606060011241FBEF9
:1002C000CFEFD0E1DEBFCDBF11E0A0E0B1E0E2EEC4
:1002D000F4E300E00BBF02C007900D92A238B10713
:1002E000D9F723E0A2E8B1E001C01D92AF3EB2070A
:1002F000E1F70E948A0F0C946F1A0C940000E82F0B
:10030000F0E0E953FC4F8085861739F06087618BF8
:100310008091C90383608093C9030895262F30E03C
:100320009091CD039078691729F09091C9039C6052
:100330009093C9033695322F222737952795822B24
:100340008093CD038093CE030895CF93DF9390E005
:10035000FC01EF5BFD4F24918A579D4FFC01849176
:100360008823C9F090E0880F991FFC01EF5CFD4FD6
:10037000A591B491FC01EF5DFD4FC591D491611140
:100380000DC09FB7F8948C91209582238C9388811F
:10039000282328839FBFDF91CF910895623051F4C5
:1003A0009FB7F8943C91822F809583238C93E881AA
:1003B0002E2BEFCF8FB7F894EC912E2B2C938FBF71
:1003C000EACF3FB7F8948091A4019091A501A09144
:1003D000A601B091A70122B706B600FE05C02F3FC7
:1003E00019F00196A11DB11D3FBFBA2FA92F982F5B
:1003F0008827BC01CD01620F711D811D911D42E056
:10040000660F771F881F991F4A95D1F70895883086
:1004100008F5E82FF0E0EE0FFF1FEA5CFE4F718356
:1004200060838150873068F4E82FF0E0E65EFD4F8E
:100430000C94FD182B023802460254025B0266023D
:10044000720280916A008C7F482B40936A0089B7C2
:10045000816089BF089580916A00837F440F551F92
:10046000440F551F482B40936A0089B78260F1CF33
:1004700080916A008F7C74E0440F551F7A95E1F7F4
:10048000482B40936A0089B78460E3CF80916A006B
:100490008F7366E0440F551F6A95E1F7482B409330
:1004A0006A0089B78860D5CF8AB78C7F482B4ABF4E
:1004B00089B78061CECF8AB7837F440F551F440F21
:1004C000551F482B4ABF89B78062C3CF8AB78F7C3C
:1004D00024E0440F551F2A95E1F7482B4ABF89B7FE
:1004E0008064B7CF8AB78F7396E0440F551F9A95F3
:1004F000E1F7482B4ABF89B78068ABCFFF920F93D3
:100500001F93CF93DF930E94E101209186013091E8
:100510008701EB01C21BD30B2091AC013091AD01DF
:10052000C217D30708F461C04091B4015091B501DE
:100530004130510561F0E091DD01F091DE01208153
:100540003091DF0123233091AA0123134EC0709311
:100550008701609386010091AE011091AF01423096
:10056000510509F419C14330510509F454C1413012
:10057000510561F480918501813009F449C0D8F1B9
:10058000833009F486C0843009F4CFC08091B4016F
:100590009091B501019749F1C017D10708F073C1D7
:1005A000809183018F5F809383018B30F0F081E035
:1005B00090E09093B5018093B40141E050E06EE784
:1005C00072E08091DB010E9407021092AA01109252
:1005D000850182E590E09093AF018093AE0183E2C4
:1005E00090E09093AD018093AC01DF91CF911F918A
:1005F0000F91FF900895C017D10730F481E08093E8
:100600008501C0938401C2CF84E080938501BECF71
:10061000C017D107E0F510928501809183018F5FAB
:1006200080938301209184018C2F0C2E000C990B58
:10063000821B910927FD939597FF03C091958195A2
:100640009109499794F21092B5011092B40182E990
:1006500090E09093AF018093AE0182E590E090939B
:10066000AD018093AC0110928301F090AB014F2D4E
:1006700050E06EE772E08091DB010E9407028091FA
:10068000DF0193E0F91229C08093AA017FCF83E0B4
:10069000BCCFC017D10718F51092B5011092B40164
:1006A00082E990E09093AF018093AE0182E590E003
:1006B0009093AD018093AC0110928301F090AB0157
:1006C0004F2D50E06EE772E08091DB010E9407023F
:1006D0008091DF0133E0F316B9F280E0D5CF90913D
:1006E000AB01933009F482E08093AB0182E090E0AB
:1006F0009093B5018093B40182E990E09093AF01AB
:100700008093AE0182E590E09093AD018093AC01BF
:100710001092BA01809183018093BB011092B701BE
:100720001092B9011092B801C9CFC017D107A8F42F
:100730001092B5011092B40182E990E09093AF015C
:100740008093AE0182E590E09093AD018093AC017F
:10075000109283011092B70188CF82E090E09093CD
:10076000B5018093B40182E990E09093AF0180934A
:10077000AE0182E590E09093AD018093AC011092C0
:10078000BA01809183018093BB011092B70110924E
:10079000B9011092B80169CF9091B7019F5F909312
:1007A000B7018091B801880FC017D107E0F080939E
:1007B000B801983009F0F0CEE091BA01E630A9F422
:1007C0001092B5011092B40182E990E09093AF01CC
:1007D0008093AE0182E590E09093AD018093AC01EF
:1007E0001092B701D3CE8160E2CF83E090E0909386
:1007F000B5018093B4019091B80181E08E0F809390
:10080000BA01F0E0EC54FE4F90878091B90189273E
:100810008093B901BBCEC017D10728F51092B5015E
:100820001092B4011092B70182E990E09093AF0169
:100830008093AE0182E590E09093AD018093AC018E
:100840008091B9018111ACCE88E0EAEBF1E0A2EC35
:10085000B1E001900D928A95E1F781E08093B601B5
:100860001092830193CE8091BA01863009F4A8CF0B
:1008700082E090E09093B5018093B4011092B701AB
:100880001092B80183CE10928301AFCE0895CF931A
:10089000DF93DC01EC91F0E0EE0FFF1FEA58FD4F13
:1008A000C591D491988111968C91982381E009F497
:1008B00080E0DF91CF910895DC011296ED91FC91DB
:1008C000139711969C911197808161110EC090959C
:1008D000982390831496ED91FC9115979081119631
:1008E0008C918095892380830895982B9083089517
:1008F00080E090E0892B29F08091E30183FD0C9446
:1009000000000895009731F16091CA037091CB0304
:100910008617970709F06DC041504A30D8F4E42F8C
:10092000F0E0EB56FB4F0C94FD189F04AB04B604AB
:10093000C604CD04D404DB04E204E904F10480918C
:10094000CF03281739F02093CF038091C90381602A
:100950008093C90308959091D00380EF820F292BD3
:1009600028239217B9F32093D003EFCF3091D0030F
:1009700040E1249FC0011124832B2295207F215F19
:100980008223381739F38093D003DFCF8091D103CE
:10099000281701F32093D103D8CF8091D2032817D1
:1009A000C9F22093D203D1CF8091D303281791F2BB
:1009B0002093D303CACF8091D403281759F22093F0
:1009C000D403C3CF8091D503281721F22093D503F8
:1009D000BCCF8091D603281709F4BCCF2093D6034F
:1009E000B4CF8091D703281709F4B4CF2093D7034D
:1009F000ACCF3091CC033F773817190609F0AACF56
:100A00004230A1F018F4413031F008954330D1F074
:100A1000443049F108958091D803281709F49ACFFA
:100A20002093D8038091C903826092CF9091D9031B
:100A300080EF820F292B2823921709F48BCF209364
:100A4000D903F0CF3091D90340E1249FC001112494
:100A5000832B2295207F215F8223381709F47ACFD8
:100A60008093D903DFCF8091DA03281709F472CF7E
:100A70002093DA03D7CF0F93009721F16091CA0337
:100A80007091CB038617970729F5822F90E030915C
:100A9000CD033078231729F02091C90324602093D7
:100AA000C9030D3189F00F3779F00F3081F49C01C3
:100AB0003695322F2227379527958091CD03822BAB
:100AC0008093CD030F9108954093CD03F0CF109202
:100AD000CD03EDCF3091CC033F773817190691F74E
:100AE000822F90E03091CE033078231729F02091A7
:100AF000C90328602093C9039695982F8827979556
:100B00008795482B4093CE03DDCF81508B3108F081
:100B10006CC0E82FF0E0E157FA4F0C94FD18AA05DD
:100B2000AC05AE05B005B205B405B605B805BA0505
:100B3000C005C205C405CA05CE05D205D405D80531
:100B4000DC05DE05E005E205E605EA05EC05EE0557
:100B5000F005F405C4980895C3980895C2980895BF
:100B6000C09808951F9808959798089596980895A5
:100B700095980895809165008F7E80936500089513
:100B8000C6980895C7980895809162008B7F8093DE
:100B900062000895809162008D7FF9CF809162009C
:100BA0008E7FF5CFDE980895809165008D7FE5CF2B
:100BB000809165008E7FE1CFA9980895AA98089545
:100BC000AB980895809162008F7DE1CF80916200A3
:100BD0008F7BDDCFDF980895AF980895AE98089584
:100BE000809162008F7ED3CFAD9808951F93CF93ED
:100BF000DF93EC018A819B8110E0892BE9F48D81E0
:100C00009E8110E0892B69F588818E7F8883DF9132
:100C1000CF911F910895812F90E0880F991FEA814D
:100C2000FB81E80FF91F0190F081E02D80818F7723
:100C300080830E9485051F5F8981181760F3DFCFCD
:100C4000812F90E0880F991FED81FE81E80FF91F39
:100C50000190F081E02D80818F7780830E9485054F
:100C60001F5F8C81181760F3CFCFFC0190819570C6
:100C7000953019F4CF010C94F6050895FC012081FC
:100C800020FF03C022FF0C94F605089581508B319C
:100C900008F06CC0E82FF0E0E05BF94F0C94FD1811
:100CA0006B066D066F067106730675067706790684
:100CB0007B068106830685068B068F0693069506BE
:100CC00099069D069F06A106A306A706AB06AD06DC
:100CD000AF06B106B506C49A0895C39A0895C29A9C
:100CE0000895C09A08951F9A0895979A0895969A1C
:100CF0000895959A089580916500806180936500BC
:100D00000895C69A0895C79A0895809162008460F4
:100D1000809362000895809162008260F9CF809193
:100D200062008160F5CFDE9A08958091650082604F
:100D3000E5CF809165008160E1CFA99A0895AA9AD4
:100D40000895AB9A0895809162008062E1CF80910E
:100D500062008064DDCFDF9A0895AF9A0895AE9A5D
:100D60000895809162008061D3CFAD9A08959091EB
:100D7000C903882361F090619093C90381E00E94C8
:100D8000460680918A00887F80938A0008959F7E1E
:100D90009093C90381E00E9485051092880010920B
:100DA000890080918A008460EFCFCF93C82F809113
:100DB000CC018C1719F08C2F0E94B706C093CC0180
:100DC000CC23F9F02FB7F8948091B0019091B10144
:100DD000A091B201B091B3012FBF482F392F2A2F14
:100DE0008B2F4093CD013093CE012093CF01809380
:100DF000D0018091CC018C1749F08C2FCF910C94AD
:100E0000B70640E030E020E080E0EBCFCF910895DE
:100E10000F931F93CF938C01C0E0F8018181C81715
:100E200020F0CF911F910F9108958C2F90E0880FA3
:100E3000991FD8011296ED91FC91E80FF91F0190CE
:100E4000F081E02D8081982F906890838F770E94A9
:100E50004606CF5FE2CF1F93CF93DF93EC0128814B
:100E600020FD15C022FF13C0322F3160388321FFCF
:100E700009C02A813B81232B51F0DF91CF911F9133
:100E80000C9408072D813E8110E0232BB9F4DF91EB
:100E9000CF911F910895812F90E0880F991FED81C8
:100EA000FE81E80FF91F0190F081E02D8081982FDD
:100EB000906890838F770E9446061F5F8C81181779
:100EC00050F3E5CFCF93DF93EC018881982F927098
:100ED000691789F0662369F082608883888180FFC2
:100EE0000AC0CE010E943506CE01DF91CF910C944D
:100EF0002B078D7FF2CFDF91CF9108951F93CF9372
:100F0000DF93EC012881322F357099F4322F316054
:100F1000388321FF09C02A813B81232B51F0DF91C7
:100F2000CF911F910C9408072D813E8110E0232B57
:100F3000B9F4DF91CF911F910895812F90E0880F30
:100F4000991FED81FE81E80FF91F0190F081E02DDE
:100F50008081982F906890838F770E9446061F5F4C
:100F60008C81181750F3E5CFCF93DF93EC01888184
:100F7000982F9270691789F0662369F082608883E0
:100F8000888180FF0AC0CE010E943E06CE01DF911B
:100F9000CF910C947E078D7FF2CFDF91CF91089592
:100FA000A89A8FE79EE30197F1F700C00000A89888
:100FB00008950C94D0071F93CF93DF93EC01809199
:100FC000C90384FF0BC08FE090E00E94C318182F64
:100FD00080E190E00E94C318181306C0CE01DF9193
:100FE000CF911F910C94C318FFCF0C94DB07CF93C4
:100FF000DF932091E0013091E1012F3F320721F092
:10100000C901DF91CF9108958091E30187FF2BC043
:1010100086FF0FC089E090E00E94F507C82F81E0AD
:1010200090E00E94F5079C2F9093E1018093E001EE
:1010300015C089E090E00E94F507C82F81E090E09C
:101040000E94F50790E4C99F90011124207C317023
:101050008F73282B3093E1012093E0018091E00110
:101060009091E101CECF85FF0CC081E190E00E941C
:10107000F507C82F82E190E00E94F507C05CDD0B08
:10108000D2CF81E090E00E94F50790E0CDCFCF93E2
:10109000863823E0920719F138F4813823E092076B
:1010A000D9F0CF910C94C318873823E09207D1F080
:1010B000883823E09207A9F786E893E00E94C318D6
:1010C000C82F87E893E00E94C31890E02FEFC29FDB
:1010D000800D911D1124E5CF81E893E0E2CF86E8F1
:1010E00093E0DFCF87E893E0DCCF0E94D506EAECFF
:1010F000F1E081E087831086E3EDF1E088E0DF0135
:101100001D928A95E9F708950F931F93CF93DF936C
:10111000EC01162FC63883E0D80781F150F4C138AE
:1011200083E0D807F9F0612FCE010E94CB18CE01E1
:101130001FC0C73883E0D80741F1C83883E0D8071B
:1011400091F786E893E00E94C318082F87E893E0A0
:101150000E94C318C82FD0E08FEF089FC00DD11D8B
:101160001124E1CF81E893E00E94CB1881E893E05D
:10117000DF91CF911F910F910C94C31886E893E0F3
:101180000E94CB1886E893E0F3CF87E893E00E94B3
:10119000CB1887E893E0ECCFCF93DF93D0E0C0E0AB
:1011A000FE01E457FF4F6491CE010E94CB182196B7
:1011B000C03181E0D807A1F761E081E893E00E94A7
:1011C000CB18C0E0CF5F8C2F0E944606CB31D1F701
:1011D000DF91CF9108950C94CC081F93CF93DF93A8
:1011E000EC01162F089779F4662319F10E94CC08B8
:1011F00080E090E0892BB9F0612FCE01DF91CF9193
:101200001F910C94000080E090E0892BA9F781E009
:10121000C11590E1D90708F080E0111105C0DF91F8
:10122000CF911F91089581E027972297C0F780E022
:10123000F6CF80E090E0892BF9F681E0F0CF0F93B4
:101240001F93CF93DF93EC01162F8091C90384FF86
:1012500025C0CF30D10561F48FE090E00E94CB181B
:101260008FE090E0DF91CF911F910F910C94C31804
:101270008FE090E00E94C318082F80E190E00E9468
:10128000C31808130AC0C730D10531F0C830D105E2
:1012900029F4183049F0FFCFFFCFFFCF612FCE01E7
:1012A0000E94CB18CE01DECF0E94CC0888E0DF91EF
:1012B000CF911F910F9108958331910588F4813169
:1012C000910530F48130910519F08930910531F4A0
:1012D0002FEF3FEF3093E1012093E0010C941F09C1
:1012E0008D319105D9F7677F6093E3012091CA01A1
:1012F0002F73362F307C232B2093CA01E9CFBF9266
:10130000CF92DF92EF92FF920F931F93CF93DF93D1
:101310008B01B42E690182FF23C083FF17C061E0F7
:10132000C8010E94ED088823D9F16B2DC8010E94E5
:101330005C098B1135C0F601DF91CF911F910F91A0
:10134000FF90EF90DF90CF90BF90099460E0C801CC
:101350000E94ED08882321F1C8010E94F507E9CF1A
:10136000842F8770C1E0D0E07E0101C0EE0C8A9529
:10137000EAF7D42FD870CB010E94F507C82FB4FE2E
:101380001CC061E0C8010E94ED08882349F0DD23FC
:1013900089F0CE296C2FC8010E945C098C1759F284
:1013A000DF91CF911F910F91FF90EF90DF90CF9041
:1013B000BF900895E094CE21EDCF60E0C8010E9477
:1013C000ED08882369F3CE21DD2319F0C111B3CFD5
:1013D000E7CFCC2309F4AFCFE3CFAF92BF92DF9238
:1013E000EF92FF920F931F93CF93DF937C01162F01
:1013F000C42FD22ED42FD07E8091CA0187FF2CC05B
:10140000D03EC1F5A090CB01AA20A1F1B12CC5011D
:101410000E94F507D82FC50101960E94F507982F65
:101420008D2FE816F90631F56C2F70E0762F6627C0
:10143000662773706D296F5F7F4F28E734E0402F78
:101440008C2FDF91CF911F910F91FF90EF90DF9044
:10145000BF90AF900C947F0980FD33C0D03609F463
:1014600064C090F4D03209F449C0D03409F45DC0AE
:10147000DD2381F1DF91CF911F910F91FF90EF90CC
:10148000DF90BF90AF900895D03A09F484C090F4F3
:101490002C2F2F7141E0D03869F7612FC701DF9100
:1014A000CF911F910F91FF90EF90DF90BF90AF9081
:1014B0000C948204D03C09F475C0D03E09F4B4CF3A
:1014C000D9CF0E94F7078E159F0541F2E114F10470
:1014D00029F2D0CF8C2F8E7069F680E090E0892BB6
:1014E00049F28C2F8170DF91CF911F910F91FF9066
:1014F000EF90DF90BF90AF900C940000CF71CF3190
:1015000009F0B8CF4D2D4F7761F0413061F02D2DAE
:10151000221F2227221F0DE1612FC7010E943B05D8
:10152000A9CF41E0F4CF40E0F2CF2C2F30E08C2F58
:101530008F71813029F030F0803121F0813109F54F
:1015400040E001C041E095E0359527959A95E1F797
:1015500021700DE1612FC7010E943B0580E090E002
:10156000892B09F487CF4C2F612FC701DF91CF91D1
:101570001F910F91FF90EF90DF90BF90AF900C9470
:101580000000C901880F991F8E71C4FB442740F9E0
:10159000482B4250D8CF2C2F2F7043E0C4FF7DCF73
:1015A00042E07BCFCF71CE3131F0CF3109F062CF45
:1015B0002D2D45E072CF2D2D44E06FCF4F925F92DD
:1015C0006F927F928F929F92AF92BF92CF92DF9253
:1015D000EF92FF920F931F93CF93DF93C091A801D7
:1015E000D091A90180919B01811116C02FB7F89469
:1015F0008091B0019091B101A091B201B091B3017D
:101600002FBF8093970190939801A0939901B09375
:101610009A0181E080939B0180918F01811111C01B
:101620000E94E101605171098109910960938B0168
:1016300070938C0180938D0190938E0181E0809353
:101640008F010E94E1012B013C018FB7F894C090FB
:10165000B001D090B101E090B201F090B3018FBF22
:1016600080919701BC2CB81A80918B0190918C01CC
:101670009201281B390BC90120918A01211169C0EF
:10168000FE0130E020E045815681C417D50709F0FE
:1016900056C045E0429F8001439F100D11240E5F0C
:1016A0001F4F0C0F1D1F1093890100938801011516
:1016B000110509F458C0F801148213828031910594
:1016C00008F492C1853F914008F0B4C18D8D9E8D84
:1016D0000E944704F801808381E080938A01409250
:1016E0008B0150928C0160928D0170928E01F6E018
:1016F000FB1508F47DC18D8D9E8D0E944704A0903E
:101700008801B090890190918A01E92FE695E695CC
:10171000E695292F277041E050E060E070E004C0BA
:10172000440F551F661F771F2A95D2F7EA0DFB2D30
:10173000F11D811129C040958081482327C02F5F6A
:101740003F4F35962530310509F09DCF10E000E080
:10175000AACF26E02B1508F44BC18031910518F073
:10176000853F914040F2DF91CF911F910F91FF9003
:10177000EF90DF90CF90BF90AF909F908F907F9031
:101780006F905F904F9008958081482B408381E057
:10179000890F80938A0140928B0150928C01609254
:1017A0008D0170928E01982F9770E9F68031E9F4DF
:1017B000F5018081873780F4EB8DFC8D309721F423
:1017C000BC8EAB8E07C0FC01838194810097D9F752
:1017D000B482A38210928A01C0929701D09298019C
:1017E000E0929901F0929A01BECF8831A9F7F501F4
:1017F00011811F778DEF782E710EF7E2F71580F0CB
:1018000088818130A1F4812E912C1D3220F51B326C
:1018100028F4112351F121E0271508F18DE026C0AD
:1018200085ED810F883250F48881823061F3E09138
:101830008801F0918901D483C383CCCF8DEA810FD5
:10184000883220F48881833091F7DDCF8EEF810FCD
:101850008230C8F6ECCF8DEA810F8230F8F2C401F5
:101860008F579C4F0E94470801C08881F501028173
:1018700090819B3739F19F3709F46CC09737B9F6DF
:101880000813D5CF61E08D8D9E8D0E945C048D8DF7
:101890009E8D0E947E0F8FE697E10197F1F700C0C1
:1018A0000000AD8DBE8D1496ED91FC911597808151
:1018B00011969C91892B808360E08D8D9E8D0E9476
:1018C0005C04B5CF202F2870302F377004FF35C04F
:1018D0001D3278F51B3208F0AACF91E0971508F079
:1018E000A6CF41E050E060E070E004C0440F551F17
:1018F000661F771F3A95D2F7182F142B211103C0BA
:10190000142F10951823612FC4018F579C4F0E94EC
:10191000840818138CCF61E08D8D9E8D0E945C042D
:101920008D8D9E8D0E947E0FEFE6F7E13197F1F7E6
:10193000B6CF13551230A8F67ACF90E002C0959535
:1019400087953A95E2F7817099272817190609F0CB
:101950006ECF98CF1B32D9F190F51330C1F114300E
:1019600009F465CF602FC4018F579C4F0E948408F3
:1019700008131FC061E08D8D9E8D0E945C048D8DCB
:101980009E8D0E947E0F8FE697E10197F1F700C0D0
:101990000000AD8DBE8D1496ED91FC911597808160
:1019A00011969C91892B808360E08D8D9E8D0E9485
:1019B0005C0411113CCF043078F4088338CF133520
:1019C00031F0143509F433CF1C3261F630CF0830D2
:1019D00081F70E94CC089FCF61E081E893E00E94EC
:1019E000840881E0888323CFF6E0FB1508F0BBCEA6
:1019F00099E09B1508F0B7CEC0929701D09298015C
:101A0000E0929901F0929A01009188011091890168
:101A10008D8D9E8D0E944704F801808381E0809324
:101A20008A0140928B0150928C0160928D017092DC
:101A30008E0199CE26E02B15D8F295CE9F92AF92CB
:101A4000BF92CF92DF92EF92FF920F931F93CF93AB
:101A5000DF937C016B01942E81E0F701481328C0CD
:101A6000A280B380E7012196A114B10431F562E0B0
:101A700070E081E090E00E941A198C01009731F02B
:101A8000FC01D182C08288818F5F8883F1E09F1240
:101A900042C0F70113830283DF91CF911F910F9111
:101AA000FF90EF90DF90CF90BF90AF909F90089500
:101AB000A580B680E7012496D7CF88818F5F888381
:101AC000C82FD0E062E070E0CE010E941A198C01AC
:101AD00020E0AE0141505109822F90E08417950714
:101AE00064F0C150D048CC0FDD1FC00FD11FD98288
:101AF000C882C5010E94D219C9CF880F991FF5016C
:101B0000E80FF91F60817181800F911FFC017183C3
:101B100060832F5FE1CFF70116830583BDCF1F924E
:101B20000F920FB60F9211242F933F938F939F9391
:101B3000AF93BF938091B0019091B101A091B20198
:101B4000B091B3013091A30123E0230F2D3768F149
:101B500026E8230F0296A11DB11D2093A3018093B7
:101B6000B0019093B101A093B201B093B301809101
:101B7000A4019091A501A091A601B091A7010196A1
:101B8000A11DB11D8093A4019093A501A093A6016E
:101B9000B093A701BF91AF919F918F913F912F91EA
:101BA0000F900FBE0F901F9018950196A11DB11DAB
:101BB000D4CF1F920F920FB60F9211240BB60F9233
:101BC0002F933F934F935F936F937F938F939F9345
:101BD000AF93BF93EF93FF93E0914401F0914501E0
:101BE0000995FF91EF91BF91AF919F918F917F9157
:101BF0006F915F914F913F912F910F900BBE0F907E
:101C00000FBE0F901F9018951F920F920FB60F9254
:101C100011240BB60F922F933F934F935F936F93C3
:101C20007F938F939F93AF93BF93EF93FF93E09135
:101C30004201F09143010995FF91EF91BF91AF915E
:101C40009F918F917F916F915F914F913F912F91D4
:101C50000F900BBE0F900FBE0F901F9018951F9204
:101C60000F920FB60F9211240BB60F922F933F9342
:101C70004F935F936F937F938F939F93AF93BF9394
:101C8000EF93FF93E0914001F09141010995FF919D
:101C9000EF91BF91AF919F918F917F916F915F91E4
:101CA0004F913F912F910F900BBE0F900FBE0F9051
:101CB0001F9018951F920F920FB60F9211240BB61A
:101CC0000F922F933F934F935F936F937F938F93D5
:101CD0009F93AF93BF93EF93FF93E0913E01F091F9
:101CE0003F010995FF91EF91BF91AF919F918F9126
:101CF0007F916F915F914F913F912F910F900BBE0C
:101D00000F900FBE0F901F9018951F920F920FB655
:101D10000F9211240BB60F922F933F934F935F9323
:101D20006F937F938F939F93AF93BF93EF93FF93A3
:101D3000E0913C01F0913D010995FF91EF91BF9138
:101D4000AF919F918F917F916F915F914F913F9153
:101D50002F910F900BBE0F900FBE0F901F901895F4
:101D60001F920F920FB60F9211240BB60F922F9362
:101D70003F934F935F936F937F938F939F93AF9313
:101D8000BF93EF93FF93E0913A01F0913B010995E6
:101D9000FF91EF91BF91AF919F918F917F916F9143
:101DA0005F914F913F912F910F900BBE0F900FBEFF
:101DB0000F901F9018951F920F920FB60F9211243B
:101DC0000BB60F922F933F934F935F936F937F9335
:101DD0008F939F93AF93BF93EF93FF93E09138015D
:101DE000F09139010995FF91EF91BF91AF919F91CA
:101DF0008F917F916F915F914F913F912F910F90B4
:101E00000BBE0F900FBE0F901F9018951F920F9250
:101E10000FB60F9211240BB60F922F933F934F934F
:101E20005F936F937F938F939F93AF93BF93EF9342
:101E3000FF93E0913601F09137010995FF91EF9101
:101E4000BF91AF919F918F917F916F915F914F91D2
:101E50003F912F910F900BBE0F900FBE0F901F90D0
:101E600018951F920F920FB60F9211240BB60F9276
:101E70002F933F934F935F936F937F938F939F9392
:101E8000AF93BF93CF93DF93EF93FF937894CCE41A
:101E9000D1E0E991F991808187FF08C08F77209187
:101EA00082019181921720F10E94460681E0C2389A
:101EB000D80779F786E984BD809182018F5F8032EF
:101EC000D1F080938201FF91EF91DF91CF91BF918B
:101ED000AF919F918F917F916F915F914F913F91C2
:101EE0002F910F900BBE0F900FBE0F901F90189563
:101EF0000E948505DBCF10928201E5CFDC011496AC
:101F0000ED91FC911597908111968C918095892384
:101F100080830895CF93DF9300D01F92CDB7DEB7B3
:101F2000789483B78C6483BF87B7816087BF82E072
:101F30008EBD8EB581608EBD8FB581608FBD85B53C
:101F4000846085BD85B5806485BD80918A0083608D
:101F500080938A0080918B00816080938B0087E85A
:101F600086B91AB80FB6F894A89581B5886181BD75
:101F700011BC0FBE1ABA17BA14BA11BA12B810921D
:101F800061001092640061E081E00E94A501EDE92A
:101F9000F1E09491E2E4F2E02491E7E8F2E0849148
:101FA000882341F19923C1F091509C30A8F4E92F86
:101FB000F0E0E352F04F0C94FD18A312A312EC0FC3
:101FC000E90F8B128E129112EC0FEC0F95129B12EF
:101FD0009F129FB59F779FBDE82FF0E0EE0FFF1F88
:101FE000EF5DFD4FA591B4918FB7F894EC912E2B36
:101FF0002C938FBFA09ABC9ABB9ABA9AB89A179A98
:102000008F9A8E9A8D9A809164008061809364008B
:10201000BE9ABF9A80916100846080936100809134
:102020006100826080936100809161008160809393
:102030006100D69A809164008260809364008091F0
:102040006400816080936400A19AA29AA39A80910F
:102050006100806280936100809161008064809360
:102060006100D79AA79AA69A8091610080618093B7
:102070006100A59A14BC15BC85B5887F85BD87B75E
:10208000806487BF85B5836085BDF1EDCF2EF1E01B
:10209000DF2EACE4EA2EA1E0FA2EB2E8AB2EB1E0DE
:1020A000BB2E17E0912EF60105911491C8010E94F4
:1020B000C3188983C80101960E94C3188A830E5FE2
:1020C0001F4FC8010E94C318803228F06FE1C80179
:1020D0000E94DC188FE1D7010D911D917D01F8015F
:1020E0008183FA81F03809F432C2F13809F438C238
:1020F000F11113C03981399D900111242C513E4FAB
:102100003B832A8341E0B801C9010E941E0D40E0D3
:10211000B8018A819B810E941E0D82E0C80ED11CED
:10212000AE14BF0409F0BFCF85E190E00E94C31850
:1021300080FF05C09091EB0194609093EB0181FFCB
:1021400005C09091F20194609093F20182FF05C066
:102150009091F90194609093F90183FF05C09091EB
:10216000000294609093000284FF05C090910702E2
:1021700094609093070285FF05C090910E029460D1
:1021800090930E0286FF05C0909115029460909383
:10219000150287FF05C080911C02846080931C0299
:1021A00086E190E00E94C31880FF05C09091E40191
:1021B00094609093E40182FF05C0909123029460A3
:1021C0009093230283FF05C090912A02946090931C
:1021D0002A0284FF05C090913102946090933102ED
:1021E00085FF05C09091380294609093380286FF75
:1021F00005C090913F02946090933F0287FF05C015
:10220000809146028460809346028DE190E00E94B6
:10221000C3188093C7038CE190E00E94C318809399
:10222000C8038DE190E00E94C31885FF9FC181E142
:1022300090E00E94C3188F73A82FB0E0FA2FEE270A
:10224000FB83EA8382E190E00E94C3182A813B81EC
:10225000282B3B832A838A819B819093CB03809395
:10226000CA0383E190E00E94C3188093CC0380E806
:102270008093CD038093CE038FE190E00E943619C6
:102280009B838A8385E1AA81BB8111968C9386E02A
:1022900090E00E943619DC01E7E5F2E0E491119646
:1022A000EC931197ECE9F2E024912C9330E0220FAB
:1022B000331FF901EF5CFD4F8591949113969C9328
:1022C0008E931297F901EF5DFD4F859194911596CC
:1022D0009C938E931497EA81FB81B68FA58FF09320
:1022E000EA03E093E90381E893E00E944708AA81AA
:1022F000BB818C93843048F061E081E893E00E94D8
:10230000840881E0EA81FB8180832A813B813093CC
:10231000A9012093A801D90111968C918F3FA1F0BA
:1023200060E00E94A501EA81FB8181819CEF980F0A
:10233000943020F08251843008F08FEF42E050E07A
:102340006EED7AE00E94070260E0AA81BB815D9693
:102350008D919C910E945C042A813B81F901368316
:10236000258333872287308B2787358B248B328FC9
:10237000218F148E138E82E08093DB0184E18093A1
:10238000DC01EAE9F2E0E491F0E0EE0FFF1FEA5829
:10239000FD4F859194919093DE018093DD01E5E5F9
:1023A000F2E0E491E093DF0160E084E10E94A501A6
:1023B000E4EBF1E086E1DF011D928A95E9F782E91D
:1023C00090E09093AF018093AE0182E590E090930E
:1023D000AD018093AC011092CA011092CB018FEF36
:1023E0009FEF9093E1018093E0011092E20183E07E
:1023F0008093AB018091DF018093AA0143E050E01C
:102400006EE772E08091DB010E9407028DE190E0AF
:102410000E94F507682F6F738DE190E00E945C09C0
:102420008093E30163E187E090E00E945C096DE046
:1024300088E090E00E945C0980E00E94750885B702
:10244000837E85BF85B7806285BFB1E0B98320E018
:10245000C22E20E0D22E30E0432E30E0532E40E05A
:10246000642E40E0742E50E0E52E50E0F52E60E042
:10247000A62E60E0B62EE091E903F091EA03FB831B
:10248000EA83038CF48DE02D309709F080C0F98148
:10249000F13009F0C0C08091CC018823F1F02FB752
:1024A000F8948091B0019091B101A091B201B091E6
:1024B000B3012FBF4091CD015091CE016091CF016A
:1024C0007091D001841B950BA60BB70B4597A10506
:1024D000B10518F080E00E9475088091B60188234C
:1024E00009F499C0F89488E0E2ECF1E0A1EEB3E0E1
:1024F00001900D928A95E1F71092B601789480913F
:10250000E103E82FF0E0ED51FC4F863008F0C4C243
:1025100011928F5FFACF9FB59F7D5DCD9FB5977F5D
:102520005ACD95B59F7D95BD57CD90918B009F77E6
:1025300090938B0051CD90918B009F7DF9CF90911E
:102540008B00977FF5CF93B79F7D93BF45CD498192
:10255000499DC001112440E0B8018C519E4FDBCD54
:102560005981599DC001112441E0F6CF81E090E0EE
:102570000E94C318181634F063E081E090E00E94D6
:10258000CB1883E0482F50E05B834A8364CE20E081
:1025900030E0232B21F0618180810E940000AA811C
:1025A000BB815B96ED91FC918081813409F4C7C1B8
:1025B00008F022C18A3209F41FC208F0FBC084323D
:1025C00009F42AC188F4813209F4CEC1833209F4B6
:1025D000D4C1811114C0A0E0B0E0AB2B09F42CC130
:1025E00081810E94000028C1863209F4D7C108F415
:1025F000E6C1883209F4F0C1893209F4F6C1838159
:102600009481AA81BB81B483A3835C969C938E93AF
:102610005B97BAE0B9838091C90382FF20C084EE42
:1026200091E09B838A8315E46091CD038091C70379
:1026300080FF91C46095661F6627661F8A819B8113
:102640000E94B4071150AA81BB811796BB83AA834D
:102650001111EACF8091C9038B7F8093C9038091C8
:10266000C90383FF21C0E4EEF1E0FB83EA8315E4B4
:102670006091CE038091CC0387FF6FC46095661F85
:102680006627661F8A819B810E94620711502A81FA
:102690003B81295F3F4F3B832A831111E9CF809112
:1026A000C903877F8093C9038091C90380FF3EC01F
:1026B00007EC13E028EF822E912C37E0332E911097
:1026C00067C48091CF0384FF4AC484EE91E00E94E6
:1026D0007E078091CF0380FF47C48BEE91E00E947C
:1026E0007E078091CF0381FF44C482EF91E00E9476
:1026F0007E078091CF0382FF41C489EF91E00E9461
:102700007E078091CF0383FF3EC480E092E00E9469
:102710007E0793940F5F1F4FF8E08F0E29E092120F
:10272000CECF8091C9038E7F8093C9038091C90366
:1027300081FF3EC007EC13E088EF882E912C97E0D4
:10274000392E9110AFC48091D80384FF92C484EED7
:1027500091E00E942B078091D80380FF8FC48BEEFD
:1027600091E00E942B078091D80381FF8CC482EFF7
:1027700091E00E942B078091D80382FF89C489EFE2
:1027800091E00E942B078091D80383FF86C480E0EC
:1027900092E00E942B0793940F5F1F4FF8E08F0E7B
:1027A00029E09212CECF8091C903877F8093C9031D
:1027B000889561CE8E3209F434C158F48C3209F414
:1027C00029C108F420C1E114F104B1F1618185E06F
:1027D00009C1803309F433C108F42AC1813309F4F3
:1027E00037C1803409F00BCFC114D10429F16181C4
:1027F00080E00E94000020C0823609F469C068F5BC
:10280000813509F4DCC088F4833409F4A6C008F4E7
:102810009DC0803509F0F3CE818160E087FF02C062
:1028200061E080580E948E0107C08E3509F417C1FF
:1028300060F4823509F0E3CEAA81BB815B96ED910D
:10284000FC915C9783819481DECE8036E1F1813604
:1028500009F0D5CE618181E038C0873609F444C0E3
:1028600058F48436D9F1B8F18536D9F1863609F0B5
:10287000C6CE618186E029C08C3609F404C130F4EB
:10288000883609F0BCCE618188E01FC08D3679F1B1
:102890008E3609F0B4CEA381B481109709F455C3E4
:1028A0008C918F3649F64114510431F22181622F07
:1028B000661F6627661F11968C91B0E88B9FC0013A
:1028C0001124822B39C0618180E00E947F01B4CF46
:1028D000618182E0FACF618183E0F7CF618184E09A
:1028E000F4CF618185E0F1CF618187E0EECF618136
:1028F000862F8F774114510409F49ECF81111AC09D
:1029000010E000E067FD0BC00F5F1F4F003811059E
:1029100009F492CF60E0C8010E940000F5CF0F5F7C
:102920001F4F0038110509F487CF61E0C8010E94EC
:102930000000F5CF607890E00E9400007DCFC114C8
:10294000D10409F479CF618181E053CFC114D1045E
:1029500009F472CF618182E04CCFC114D10409F433
:102960006BCF618183E045CF20E030E0232B09F479
:1029700063CF81810E9400005FCF40E050E0452B93
:1029800009F45ACF818187FD03C00E94000054CF13
:10299000819590E0919581959109F7CF80E090E045
:1029A000892B09F449CF818187FD03C00E94000073
:1029B00043CF819590E0919581959109F7CF61146E
:1029C000710409F439CF818160E087FF02C061E0C2
:1029D00080580E94000030CFE114F10409F42CCF9C
:1029E000618180E00E94000027CFE114F10409F426
:1029F00023CF618181E0F6CFE114F10409F41CCF0B
:102A0000618182E0EFCFE114F10409F415CF618117
:102A100083E0E8CFE114F10409F40ECF618184E092
:102A2000E1CFE114F10409F407CF618186E0DACF48
:102A3000E114F10409F400CF618187E0D3CFA11440
:102A4000B10409F4F9CE618181E00E940000F4CE66
:102A5000A114B10409F4F0CE618182E0F6CFA38124
:102A6000B481109709F474C28C918F3509F0E4CECB
:102A700020E030E0232B09F4DFCE11969C91818178
:102A80000E940000D9CE40E050E0452B09F4D4CE9E
:102A900081810E940000D0CEE0E0F0E0EF2B21F039
:102AA00081EE93E00E9400008091E303811117C042
:102AB0009091E403911113C080E090E0892B19F00C
:102AC00080E00E9400008091CC01882321F081E009
:102AD0000E94D506A0CD81E00E9475089CCD909102
:102AE000CC01992309F495C08057803108F08EC03D
:102AF00081E00E94D506F091E103FA838091D30131
:102B0000F8130AC04F2F50E065ED71E083EE93E0BB
:102B10000E945B1A892B61F01092D20188E0E1EEED
:102B2000F3E0A3EDB1E001900D928A95E1F773CD4A
:102B30008091D2018F5F8093D2012A81233009F0E6
:102B40004CC09091E303892F87701091E403853086
:102B500029F41093D1010E94D0075DCD843059F142
:102B6000282F30E0843010F54091D1014423F1F05A
:102B7000A42FA150BB0BAA0FBB1FAA0FBB1FA20FF4
:102B8000B31F1196BB83AA8393FF1AC061E08A81A9
:102B90009B810E94ED08882309F43DCD612F8A8135
:102BA0009B810E945C09181336CDD5CFF90131966F
:102BB000FB83EA83E9CF2DE130E03B832A83E4CF36
:102BC00060E08A819B810E94ED08882309F423CD6F
:102BD0008A819B810E94F507E6CF3A81343009F063
:102BE0001ACD8091E303682F70E0762F6627662761
:102BF00073709091E403692B6F5F7F4F29ED37E08D
:102C00004091E5038C700E947F0905CD80E00E9411
:102C10007508E091E303EF3F61F48091E4038111D3
:102C2000FACC80E090E0892B09F4F5CC0E940000FA
:102C3000F2CCE7FD0CC00091E6032091E503409142
:102C4000E40360E08E2F90E00E94ED09E4CCE03CCC
:102C500008F06BC19091CA0197FFDDCC8091E4032D
:102C6000282F30E0A90140955095440F551F440F7F
:102C7000551F407C5170EF734E2B5B834A83359513
:102C80002795522F5370352E2091E103253069F599
:102C90008C788C3051F50E94F707AA81BB818A1786
:102CA0009B0721F0AF3FB14009F0B5CCF091E403B0
:102CB0002F2F30E0522F4427442753708091E50393
:102CC000480F511D4F5F5F4F5B834A831091E603AE
:102CD00061E0CA010E94ED08612F882309F49BCCB2
:102CE0008A819B810E945C0996CC8A809B8051E0FE
:102CF000851A9108880C991C880C991C83288401DA
:102D00000F5F1F4F8091E2018823F9F096FF41C0C9
:102D1000C80160E071E00E94E918682F81E090E04E
:102D20000E945C09C80117FF02C081509F4F692FA4
:102D300089E090E00E945C0980E090E0892B19F026
:102D4000C8010E9400001092E2018091CA0180FD3A
:102D50003CC08091E103843009F052C08091E403CB
:102D60008978813009F057CC6091E50380E090E0EC
:102D7000892B19F0C8010E94000080E090E0892BA7
:102D800009F449CC4091E503632DC8010E9400007D
:102D900042CC6A817B816F73772781E090E00E944B
:102DA0005C096A817B81E6E075956795EA95E1F7B4
:102DB00089E090E00E945C0980E090E0892B19F2A4
:102DC0008A819B810E940000BECF86FF0CC00E94BA
:102DD000F7078017910709F4BCCF0D3F87E018076C
:102DE0000CF0B7CF18CC0E94F707AA81BB818A17D5
:102DF0009B0709F4AECFAF3FB14009F4AACF0BCC8B
:102E0000833079F54091E403F42FF1708F2E43FB6A
:102E1000992490F880E090E0892B39F04770292DB3
:102E20006A817B81C8010E9400008091CA0186FFEF
:102E30000BC080E090E0892B09F4EDCB492D682D83
:102E4000C8010E940000E7CB80E090E0892B09F4E4
:102E5000E2CB292D482D632D8A819B810E940000A1
:102E6000DACB863009F0D7CB8091E403982F99789C
:102E7000913021F08F78803809F0CDCB8091CA0154
:102E800086FF2BC00E94F7078017910711F58091EC
:102E9000E50390E0382F2227222733704091E60384
:102EA000A42FA20FB32FB11D1196BB83AA8310913B
:102EB000E703959587959595879583709927823037
:102EC0009105B1F0039709F0A6CB61E08A819B815F
:102ED00001CF0D3F1740DCF69ECB0E94F707EA8139
:102EE000FB818E179F0799F2EF3FF14081F293CB60
:102EF00014FF91CB61E08A819B810E94ED088823B9
:102F000009F489CB8A819B810E94F507912F9770E4
:102F100061E070E001C0660F9A95EAF713FF02C006
:102F2000682BDECE60956823DBCEE83E08F073CBDD
:102F3000E05CFF0B8091E4030091E7032091E6033E
:102F40004091E50361E09E2F7FCE3AE0398363CB69
:102F50004AE0498360CB607871CB607893CB84EE94
:102F600091E00E943E06B5CB8BEE91E00E943E06BA
:102F7000B8CB82EF91E00E943E06BBCB89EF91E097
:102F80000E943E06BECB80E092E00E943E06C1CB8E
:102F9000882D90E00596389EA001399E500D112491
:102FA0005B834A83CA018C519E4FD80118962C919D
:102FB00020FF4AC00E947E078A819B8185519E4FD7
:102FC000F801208521FF43C00E947E078A819B81F2
:102FD0008E509E4FD80118962C9122FF3BC00E9424
:102FE0007E078A819B8187509E4FF801208523FFB1
:102FF00034C00E947E078A819B8180509E4FD801F9
:1030000018962C9124FF2CC00E947E078A819B81F8
:10301000895F9D4FF801208525FF25C00E947E070E
:103020008A819B81825F9D4FD80118962C9126FF43
:103030001DC00E947E078A819B818B5E9D4FF80197
:10304000208527FFA2CF63CB0E943E06B5CF0E940A
:103050003E06BCCF0E943E06C4CF0E943E06CBCFA8
:103060000E943E06D3CF0E943E06DACF0E943E0663
:10307000E2CF84EE91E00E9435066DCB8BEE91E0BD
:103080000E94350670CB82EF91E00E94350673CB2B
:1030900089EF91E00E94350676CB80E092E00E94B5
:1030A000350679CB882D90E00596389EA001399E93
:1030B000500D11245B834A83CA018C519E4FD80165
:1030C00051962C9120FF4AC00E942B078A819B8138
:1030D00085519E4FF801218921FF43C00E942B0793
:1030E0008A819B818E509E4FD80151962C9122FF50
:1030F0003BC00E942B078A819B8187509E4FF8011D
:10310000218923FF34C00E942B078A819B81805034
:103110009E4FD80151962C9124FF2CC00E942B0762
:103120008A819B81895F9D4FF801218925FF25C0F8
:103130000E942B078A819B81825F9D4FD801519607
:103140002C9126FF1DC00E942B078A819B818B5EDC
:103150009D4FF801218927FFA2CF1BCB0E94350686
:10316000B5CF0E943506BCCF0E943506C4CF0E9461
:103170003506CBCF0E943506D3CF0E943506DACF75
:103180000E943506E2CFE199FECF9FBB8EBBE09A4D
:1031900099278DB30895262FE199FECF9FBB8EBB53
:1031A000E09A01970DB2021631F02DBB0FB6F894DC
:1031B000E29AE19A0FBE0895262FE199FECF9FBBB8
:1031C0008EBB2DBB0FB6F894E29AE19A0FBE019622
:1031D000089597FB072E16F4009407D077FD09D0C9
:1031E0000E94061907FC05D03EF4909581959F4FEB
:1031F0000895709561957F4F0895EE0FFF1F00248D
:10320000001C0BBE0790F691E02D0994AA1BBB1B76
:1032100051E107C0AA1FBB1FA617B70710F0A61BD6
:10322000B70B881F991F5A95A9F780959095BC01F7
:10323000CD0108950F931F93CF93DF93869F800155
:10324000879F100D969F100D1124C8010E943619FA
:10325000EC01009729F0A80170E060E00E94681A74
:10326000CE01DF91CF911F910F9108950F931F937E
:10327000CF93DF938230910510F482E090E0E091EB
:10328000ED03F091EE0330E020E0B0E0A0E03097F5
:1032900099F42115310509F44AC0281B390B243053
:1032A0003105D8F58A819B816115710589F1FB0192
:1032B00093838283FE0111C0408151810281138179
:1032C00048175907E0F04817590799F4109761F02B
:1032D00012960C93129713961C933296CF01DF919E
:1032E000CF911F910F9108950093ED031093EE037A
:1032F000F4CF2115310551F04217530738F0A901D9
:10330000DB019A01BD01DF01F801C1CFEF01F9CF67
:103310009093EE038093ED03CDCFFE01E20FF31FF8
:10332000819391932250310939832883D7CF2091FB
:10333000EB033091EC03232B41F4209148013091B1
:1033400049013093EC032093EB0320914601309127
:1033500047012115310541F42DB73EB740914A018F
:1033600050914B01241B350BE091EB03F091EC03E2
:10337000E217F307A0F42E1B3F0B2817390778F04C
:10338000AC014E5F5F4F2417350748F04E0F5F1FAB
:103390005093EC034093EB03819391939FCFF0E024
:1033A000E0E09CCFCF93DF930097E9F0FC013297E8
:1033B00013821282A091ED03B091EE03ED0130E093
:1033C00020E01097A1F420813181820F931F20917A
:1033D000EB033091EC032817390709F061C0F09333
:1033E000EC03E093EB03DF91CF910895EA01CE1750
:1033F000DF07E8F54A815B819E0141155105B1F770
:10340000E901FB83EA8349915991C40FD51FEC1759
:10341000FD0761F4808191810296840F951FE90177
:1034200099838883828193819B838A83F0E0E0E0A3
:1034300012968D919C9113970097B9F52D913C911F
:103440001197CD010296820F931F2091EB033091CB
:10345000EC032817390739F6309751F51092EE032F
:103460001092ED03B093EC03A093EB03BCCFD38396
:10347000C28340815181840F951FC817D90761F419
:103480004E5F5F4F88819981480F591F5183408358
:103490008A819B81938382832115310509F0B0CF06
:1034A000F093EE03E093ED039ECFFD01DC01C0CF6E
:1034B00013821282D7CFFB01DC0104C08D910190F1
:1034C000801921F441505040C8F7881B990B08958A
:1034D000DC0101C06D9341505040E0F70895F8942D
:0234E000FFCF1C
:1034E2001BFF1AFF19FF18FF17FF16FF15FF14FF26
:1034F20013FF12FF11FF10FF0FFF0EFF0DFF0CFF56
:103502000BFF0AFF09FF08FF07FF06FF05FF04FF85
:1035120003FF02FF01FF460400000000000000005C
:103522000000000000000000EF03800034013201BF
:1035320030012E012C012A01280126012401220139
:1035420020011E011C011A011801160114011201A9
:1035520010010E010C010A01080106010401020119
:02356200000166
:00000001FF
